:100000000C9434000C9451000C9451000C94510049
:100010000C9451000C9451000C9451000C9451001C
:100020000C9451000C9451000C9451000C9451000C
:100030000C9451000C9451000C9451000C945100FC
:100040000C9451000C9451000C9451000C945100EC
:100050000C9451000C9451000C9451000C945100DC
:100060000C9451000C94510011241FBECFEFD8E026
:10007000DEBFCDBF11E0A0E0B1E0ECE5F2E002C0F0
:1000800005900D92AE31B107D9F721E0AEE1B1E0B4
:1000900001C01D92AF31B207E1F70E94E0000C945D
:1000A0002C010C9400008430C0F515B898B19E7FE7
:1000B00098B990E01EC0282F30E0F901EE0FFF1F25
:1000C000EE0FFF1FEE0FFF1FE21BF30BEE5FFE4F65
:1000D000E90FF11D2081222359F045B121E030E0E4
:1000E000092E02C0220F331F0A94E2F7242B25B9F0
:1000F0009F5F963000F390E0FC01EE0FFF1FEE0FC4
:10010000FF1FEE0FFF1FE81BF90BEE5FFE4F86810E
:10011000882319F088B1816088B9089581E090E062
:100120000090010102C0880F991F0A94E2F78BB971
:100130002FEF89E698E1215080409040E1F700C020
:10014000000080910001882369F0809101018F5F98
:1001500080930101883098F086E08093010110922D
:100160000001089580910101815080930101823046
:1001700030F483E08093010181E0809300010895D1
:1001800080911E01811106C08CE18BB981E08093C2
:100190001E0104C080EE8BB910921E012FEF89E67C
:1001A00098E1215080409040E1F700C000000895A0
:1001B0008BB18C6F8BB908958BB183708BB9089517
:1001C0008FE384B987B1816087B987B1837B87B9B1
:1001D00088B18C6488B98AB18C6F8AB926B12470D1
:1001E00030E086B1887090E046B1407450E00097EE
:1001F00049F02115310531F080E00E9453000E9442
:100200008E00ECCF009749F02115310531F481E0E3
:100210000E9453000E94DC00E1CF009749F42115B1
:10022000310531F082E00E9453000E94C000D6CF19
:10023000009749F42115310531F483E00E94530001
:100240000E94D800CBCF452B49F6232B39F2892BBE
:0C02500029F20E94DC00C2CFF894FFCF1E
:10025C000102010101010101000001010000000087
:0E026C0001010001010001010101010000017A
:00000001FF
